:100000000C9463000C948B000C948B000C944C06A5
:100010000C944C060C944C060C948B000C948B00A6
:100020000C948B000C948B000C948B000C9490051A
:100030000C948B000C948B000C948B000C948B0014
:100040000C94EE040C948B000C945E050C94380513
:100050000C948B000C948B000C948B000C948B00F4
:100060000C948B000C948B000000000024002700EF
:100070002A0000000008000201000003040700003D
:1000800000000000000000000000230026002900FE
:1000900000000000250028002B00040404040404D0
:1000A0000404020202020202030303030303010227
:1000B00004081020408001020408102001020408F6
:1000C0001020C406FA0711241FBECFEFD8E0DEBF10
:1000D000CDBF11E0A0E0B1E0EAECF3E102C0059091
:1000E0000D92A234B107D9F722E0A2E4B1E001C039
:1000F0001D92A537B207E1F710E0C2E6D0E004C0D8
:100100002197FE010E94AD08C136D107C9F70E94B0
:100110006F070C94D8090C94000090E0FC01EE5895
:10012000FF4F2491FC01E255FF4F3491FC01E6564C
:10013000FF4FE491EE23C9F0222339F0233001F17F
:10014000A8F4213019F1223029F1F0E0EE0FFF1F61
:10015000E057FF4FA591B4918FB7F894EC916111DE
:1001600026C030953E233C938FBF08952730A9F0D9
:100170002830C9F0243049F7809180008F7D03C07A
:10018000809180008F7780938000DFCF84B58F7758
:1001900084BDDBCF84B58F7DFBCF8091B0008F779E
:1001A0008093B000D2CF8091B0008F7DF9CF3E2BED
:1001B000DACFCF93DF9390E0FC01E255FF4F24911B
:1001C00086569F4FFC0184918823D1F090E0880FE0
:1001D000991FFC01E859FF4FA591B491FC01E0572C
:1001E000FF4FC591D49161110EC09FB7F8948C91C7
:1001F000E22FE0958E238C932881E223E8839FBF32
:10020000DF91CF9108958FB7F894EC91E22BEC93A6
:100210008FBFF6CF3FB7F8948091B1019091B201B2
:10022000A091B301B091B40126B5A89B05C02F3FA2
:1002300019F00196A11DB11D3FBFBA2FA92F982F0C
:100240008827BC01CD01620F711D811D911D42E007
:10025000660F771F881F991F4A95D1F708958F92CF
:100260009F92AF92BF92CF92DF92EF92FF924B019B
:100270005C010E940A016B017C010E940A016C1959
:100280007D098E099F09683E734081059105A8F399
:1002900021E0821A9108A108B10888EEC80E83E017
:1002A000D81EE11CF11C81149104A104B10429F7AA
:1002B000FF90EF90DF90CF90BF90AF909F908F9086
:1002C0000895AF92BF92CF92DF92EF92FF920F9379
:1002D0001F93CF93DF936C017B018B01040F151FDC
:1002E000EB015E01AE18BF08C017D10759F0699144
:1002F000D601ED91FC910190F081E02DC6010995A8
:10030000892B79F7C501DF91CF911F910F91FF9054
:10031000EF90DF90CF90BF90AF900895FC01538D88
:10032000448D252F30E0842F90E0821B930B5417CF
:1003300010F0CF96089501970895FC01918D828D5C
:10034000981761F0A28DAE0FBF2FB11D5D968C91F5
:10035000928D9F5F9F73928F90E008958FEF9FEF34
:100360000895FC01918D828D981731F0828DE80FF0
:10037000F11D858D90E008958FEF9FEF0895FC01AA
:10038000918D228D892F90E0805C9F4F821B910977
:100390008F739927089585EB91E00E94BF0121E0BA
:1003A000892B09F420E0822F089580E090E0892BCA
:1003B00029F00E94CB0181110C9400000895FC01EA
:1003C000A48DA80FB92FB11DA35ABF4F2C91848DB6
:1003D00090E001968F739927848FA689B7892C9313
:1003E000A089B1898C91837080648C93938D848D66
:1003F000981306C00288F389E02D80818F7D808369
:100400000895EF92FF920F931F93CF93DF93EC0128
:1004100081E0888F9B8D8C8D98131AC0E889F989AB
:10042000808185FF15C09FB7F894EE89FF896083AE
:10043000E889F98980818370806480839FBF81E02F
:1004400090E0DF91CF911F910F91FF90EF90089571
:10045000F62E0B8D10E00F5F1F4F0F731127E02E4C
:100460008C8D8E110CC00FB607FCFACFE889F98984
:10047000808185FFF5CFCE010E94DF01F1CFEB8DAA
:10048000EC0FFD2FF11DE35AFF4FF0829FB7F89458
:100490000B8FEA89FB8980818062CFCFCF93DF9376
:1004A000EC01888D8823B9F0AA89BB89E889F9898C
:1004B0008C9185FD03C0808186FD0DC00FB607FCC1
:1004C000F7CF8C9185FFF2CF808185FFEDCFCE01F4
:1004D0000E94DF01E9CFDF91CF9108958F929F9223
:1004E000AF92BF92FF920F931F93CF93DF93FC01C4
:1004F000F0808BE08F1508F44AC0828108E512E095
:10050000081B110987FD1395000F111F000F111F04
:100510008181C8E8D0E0C81BD10987FDD395CC0FF5
:10052000DD1FCC0FDD1F4E010D2E000CAA08BB08ED
:100530009801012E000C440B550B281939094A0962
:100540005B09DB010E94400824EB30E040E050E012
:100550000E941608820E931EA41EB51E8C169D06C0
:100560002CF0E801801691060CF4E4012297CC0FE0
:10057000DD1F2FB7F8948F2D90E0FC01EE0FFF1FC9
:10058000E80FF91FE857FE4FD283C1832FBFDF91D9
:10059000CF911F910F91FF90BF90AF909F908F9040
:1005A00008951F93CF93DF93EC01162F88818C3031
:1005B00008F04EC061E0812F0E94D9008881282F69
:1005C00030E0F901EE0FFF1FE20FF31FE857FE4F77
:1005D0001F736081607C612B608319821A822CE01A
:1005E000622F0E947908829FB001112430E020E040
:1005F000AB01420F531FFA01EE0FFF1FE40FF51F6F
:10060000E857FE4F908196FD16C02F5F3F4F2C306C
:10061000310571F781110FC01092800082E0809344
:1006200081001092850010928400B19A80916F0031
:10063000826080936F00E8818E2F90E0FC01EE0FC6
:10064000FF1FE80FF91FE857FE4F80818064808309
:100650008881DF91CF911F910895FC0190918701CE
:100660009C3098F481E0890F809387019083892FD3
:1006700090E0FC01EE0FFF1FE80FF91FE857FE4F57
:1006800088EB9BE09283818308958FEF80830895A8
:1006900020918401309185012817390771F49091D8
:1006A000830180918201981741F0E0918301F0E08D
:1006B000EE5BFE4F808190E008958FEF9FEF0895ED
:1006C0000895EF92FF920F931F93CF93DF93DC0176
:1006D0005C96ED90FC905D97E114F10479F481E073
:1006E00090E013969C938E93129790E080E0DF91B8
:1006F000CF911F910F91FF90EF9008955196ED913A
:10070000FC91529750968C915097982F90950FB7D7
:100710005E962C915E97122F127021FD6095F894D1
:100720002081112319F1282B2083E7012197F1F76C
:1007300028E0462F50E0308160FF1AC0382B30830C
:10074000E7012197F1F7BA0175956795215089F76F
:10075000112381F08081892380830FBF5C968D9166
:100760009C910197F1F781E090E0C1CF2923DCCF84
:100770003923E5CF9081892BEFCF209184013091EF
:1007800085012817390771F4809182012091830136
:1007900090E0805C9F4F821B910960E470E00E94B2
:1007A0008508089590E080E00895209184013091BB
:1007B000850128173907B9F490918301809182014E
:1007C000981789F0E0918301F0E0EE5BFE4F8081A5
:1007D0002091830130E02F5F3F4F2F733327209309
:1007E000830190E008958FEF9FEF089590E080E0FF
:1007F00008950895CF93DF93EC01259670E060E0B3
:10080000CE010E946E026FE070E080E090E00E94F6
:100810002F0170E060E0CE010E946E026FE070E098
:1008200080E090E00E942F0170E060E0CE010E9425
:100830006E026FE070E080E090E00E942F0170E0B7
:1008400060E0CE010E946E026FE070E080E090E018
:10085000DF91CF910C942F018F929F92AF92BF9214
:10086000CF92DF92EF92FF920F931F93CF93DF937C
:100870005C018EE090E00E94B308EC018AE091E018
:10088000FE01819391938F01CF010E942D037E0180
:10089000F5E0EF0EF11CC7010E942D036E0188E008
:1008A000C80ED11CC6010E942D034E01EBE08E0E36
:1008B000911CC4010E942D0362E070E0C4010E94FB
:1008C000D10263E070E0C6010E94D10264E070E0F2
:1008D000C7010E94D10265E070E0C8010E94D10208
:1008E000F501D183C083DF91CF911F910F91FF90CC
:1008F000EF90DF90CF90BF90AF909F908F90089532
:10090000CF93DF93FC0101900020E9F73197AF010D
:10091000481B590BBC0185EB91E00E946101EC0181
:1009200042E050E062E371E085EB91E00E946101FA
:100930008C0F9D1FDF91CF9108950F931F93CF933D
:10094000DF9300D0CDB7DEB785E391E00E9480044D
:100950001A821982CE0101960E942C0489819A8103
:100960000E94FA0304E010E01A821982CE01019677
:100970000E942C0489819A816AE570E005960E94A4
:100980006E026FE070E080E090E00E942F011A821A
:100990001982CE0101960E942C0489819A8170E00F
:1009A00060E005960E946E028BE391E00E94800455
:1009B00001501109C9F61A821982CE0101960E94CE
:1009C0002C0489819A810E94FA030F900F90DF9185
:1009D000CF911F910F9108950C944F091F920F9280
:1009E0000FB60F9211242F933F938F939F93AF9342
:1009F000BF938091AD019091AE01A091AF01B091F4
:100A0000B0013091AC0123E0230F2D3758F501964A
:100A1000A11DB11D2093AC018093AD019093AE0157
:100A2000A093AF01B093B0018091B1019091B20158
:100A3000A091B301B091B4010196A11DB11D8093A5
:100A4000B1019093B201A093B301B093B401BF91EF
:100A5000AF919F918F913F912F910F900FBE0F906B
:100A60001F90189526E8230F0296A11DB11DD2CF25
:100A70001F920F920FB60F9211242F933F934F9313
:100A80005F936F937F938F939F93AF93BF93EF93F6
:100A9000FF9385EB91E00E94DF01FF91EF91BF9101
:100AA000AF919F918F917F916F915F914F913F9106
:100AB0002F910F900FBE0F901F9018951F920F92BD
:100AC0000FB60F9211242F938F939F93EF93FF9361
:100AD000E091C501F091C6018081E091CB01F091D8
:100AE000CC0182FD1BC090818091CE018F5F8F73FE
:100AF0002091CF01821741F0E091CE01F0E0EB545C
:100B0000FE4F958F8093CE01FF91EF919F918F9132
:100B10002F910F900FBE0F901F9018958081F4CFEA
:100B20001F920F920FB60F9211242F933F934F9362
:100B30005F936F937F938F939F93AF93BF93CF9365
:100B4000DF93EF93FF9380918601C0918701D0E0FE
:100B500087FF24C010928500109284008091860146
:100B60008F5F8093860180918601082E000C990B7F
:100B70008C179D0724F4809186018C30C4F18091FC
:100B8000840090918500049680349C4908F47AC0D2
:100B90008091840090918500049676C080918601B2
:100BA000082E000C990B8C179D07C4F6E091860166
:100BB0008E2FEE0F990BFC01EE0FFF1FE80FF91FB0
:100BC000E857FE4F808186FFC9CFE09186018E2FC6
:100BD000EE0F990BFC01EE0FFF1FE80FF91FE8570E
:100BE000FE4F808160E08F730E948D00B7CF20910F
:100BF000840030918500E09186018E2FEE0F990BD5
:100C0000FC01EE0FFF1FE80FF91FE857FE4F81812F
:100C10009281820F931F9093890080938800E091C6
:100C200086018E2FEE0F990BFC01EE0FFF1FE80FD0
:100C3000F91FE857FE4F808186FF11C0E0918601C1
:100C40008E2FEE0F990BFC01EE0FFF1FE80FF91F1F
:100C5000E857FE4F808161E08F730E948D00FF9105
:100C6000EF91DF91CF91BF91AF919F918F917F9144
:100C70006F915F914F913F912F910F900FBE0F9009
:100C80001F90189580E49CE99093890080938800D8
:100C90008FEF80938601E3CF1F920F920FB60F92D2
:100CA00011242F933F934F935F936F937F938F9371
:100CB0009F93AF93BF93EF93FF93E0918401F091E3
:100CC0008501309749F0A685B7858585968D91FF7A
:100CD00014C09C918923A1F4FF91EF91BF91AF9132
:100CE0009F918F917F916F915F914F913F912F9144
:100CF0000F900FBE0F901F9018959C91892361F75C
:100D0000A389B4899C918589809589238C93868950
:100D100097890197F1F7608D718DA685B785558507
:100D200038E020E0CB010197F1F7822F90E0959514
:100D30008795282F4C91452309F02068315091F771
:100D4000868D81FD20958091820190E001968F73C0
:100D5000992730918301381799F0A0918201B0E072
:100D6000AE5BBE4F2C9380938201828D938D019751
:100D7000F1F7A389B4898C919589892B8C93ACCF99
:100D8000868D8160868FF1CF1092B8011092B701E5
:100D900088EE93E0A0E0B0E08093B9019093BA01AF
:100DA000A093BB01B093BC0122E131E03093B601C6
:100DB0002093B50125EC30E03093C2012093C101AE
:100DC00024EC30E03093C4012093C30120EC30E0E8
:100DD0003093C6012093C50121EC30E03093C80167
:100DE0002093C70122EC30E03093CA012093C9015F
:100DF00026EC30E03093CC012093CB011092CE0151
:100E00001092CF011092D0011092D1011092550290
:100E1000109254028093560290935702A093580266
:100E2000B093590284E291E090935302809352026E
:100E3000109269021092680210926B0210926A027C
:100E400010926D0210926C0210926F0210926E025C
:100E5000609170026E7F6D7F609370026695617025
:100E600081E068278BE00E948D0061E08BE00E94AA
:100E7000D900E9EBF0E0E491E0936202E5EAF0E00A
:100E8000E491F0E0EE0FFF1FE057FF4F8591949142
:100E9000909364028093630260E08AE00E94D9002C
:100EA0008091700281FD04C061E08AE00E948D00A3
:100EB0008AE080935E02E8EBF0E0E491E0935F0269
:100EC000E4EAF0E0E491F0E0EE0FFF1FEA57FF4F95
:100ED0008591949190936102809360020895789433
:100EE00084B5826084BD84B5816084BD85B582602F
:100EF00085BD85B5816085BD80916E0081608093E0
:100F00006E00109281008091810082608093810048
:100F10008091810081608093810080918000816058
:100F2000809380008091B10084608093B1008091B3
:100F3000B00081608093B00080917A0084608093DB
:100F40007A0080917A00826080937A0080917A00A2
:100F5000816080937A0080917A00806880937A0023
:100F60001092C100E091C501F091C60182E080833A
:100F7000E091C101F091C2011082E091C301F091B2
:100F8000C4018FEC80831092CD01E091C901F091F2
:100F9000CA0186E08083E091C701F091C801808199
:100FA00080618083E091C701F091C80180818860F1
:100FB0008083E091C701F091C801808180688083BF
:100FC000E091C701F091C80180818F7D8083C0E0EE
:100FD000D0E00E949D0468EE73E080E090E00E9403
:100FE0002F012097B1F30E94CB01882391F30E9437
:100FF0000000EFCF84E291E090935302809352027D
:1010000080918401909185018255924071F4E09124
:101010006502F09166029081809167028095892334
:10102000808310928501109284010895052E97FB0C
:101030001EF400940E942D0857FD07D00E94480816
:1010400007FC03D04EF40C942D0850954095309534
:1010500021953F4F4F4F5F4F089590958095709524
:1010600061957F4F8F4F9F4F08950E946A08A59FFB
:10107000900DB49F900DA49F800D911D1124089593
:10108000B7FF0C9435080E943508821B930B089516
:10109000A1E21A2EAA1BBB1BFD010DC0AA1FBB1F7C
:1010A000EE1FFF1FA217B307E407F50720F0A21BEE
:1010B000B30BE40BF50B661F771F881F991F1A945B
:1010C00069F760957095809590959B01AC01BD0185
:1010D000CF010895A29FB001B39FC001A39F700DDF
:1010E000811D1124911DB29F700D811D1124911D30
:1010F0000895991B79E004C0991F961708F0961B74
:10110000881F7A95C9F78095089597FB072E16F4E6
:10111000009407D077FD09D00E94990807FC05D0FC
:101120003EF4909581959F4F0895709561957F4FFE
:101130000895AA1BBB1B51E107C0AA1FBB1FA6171E
:10114000B70710F0A61BB70B881F991F5A95A9F770
:1011500080959095BC01CD010895EE0FFF1F05907D
:10116000F491E02D09940F931F93CF93DF93823076
:10117000910510F482E090E0E0917302F091740226
:1011800030E020E0B0E0A0E0309799F4211531057F
:1011900009F44AC0281B390B24303105D8F58A815F
:1011A0009B816115710589F1FB0193838283FE01A7
:1011B00011C0408151810281138148175907E0F025
:1011C0004817590799F4109761F012960C931297EB
:1011D00013961C933296CF01DF91CF911F910F91FF
:1011E00008950093730210937402F4CF2115310512
:1011F00051F04217530738F0A901DB019A01BD01F4
:10120000DF01F801C1CFEF01F9CF90937402809311
:101210007302CDCFFE01E20FF31F81939193225011
:10122000310939832883D7CF20917102309172021E
:10123000232B41F42091020130910301309372027B
:101240002093710220910001309101012115310597
:1012500041F42DB73EB74091040150910501241B84
:10126000350BE0917102F0917202E217F307A0F4DE
:101270002E1B3F0B2817390778F0AC014E5F5F4FEC
:101280002417350748F04E0F5F1F509372024093AA
:101290007102819391939FCFF0E0E0E09CCFCF93D8
:1012A000DF930097E9F0FC01329713821282A0913C
:1012B0007302B0917402ED0130E020E01097A1F4C8
:1012C00020813181820F931F20917102309172022F
:1012D0002817390709F061C0F0937202E093710298
:1012E000DF91CF910895EA01CE17DF07E8F54A8133
:1012F0005B819E0141155105B1F7E901FB83EA834A
:1013000049915991C40FD51FEC17FD0761F48081F5
:1013100091810296840F951FE901998388838281C8
:1013200093819B838A83F0E0E0E012968D919C91FB
:1013300013970097B9F52D913C911197CD01029625
:10134000820F931F20917102309172022817390782
:1013500039F6309751F51092740210927302B093DF
:101360007202A0937102BCCFD383C28340815181AA
:10137000840F951FC817D90761F44E5F5F4F8881AE
:101380009981480F591F518340838A819B819383A0
:1013900082832115310509F0B0CFF0937402E093F8
:1013A00073029ECFFD01DC01C0CF13821282D7CF22
:1013B00010E0C2E6D0E004C0FE010E94AD08219614
:0A13C000C336D107C9F7F894FFCF38
:1013CA0000007502800000000000F903EC04000030
:1013DA000000010261018E014E02BF019D01B101AF
:1013EA000000000061036101F6036003BD03D50339
:1013FA0048030D0A006C6C65676100456E74726182
:02140A000000E0
:00000001FF
